:020000020000FC
:040000000C94120149
:1000480000C00091C00007FF03C00091C60001C0B6
:1000580000E0902F0F9301E05F985E985D985C98A0
:10006800289807FD5F9A06FD5E9A05FD5D9A04FDD6
:100078005C9A299A2F938F939F9321E08EE39CE9B2
:100088000197F1F72A95D1F700009F918F912F9151
:1000980029985F985E985D985C9803FD5F9A02FDC9
:1000A8005E9A01FD5D9A00FD5C9A299A2F938F93C1
:1000B8009F9321E08EE39CE90197F1F72A95D1F708
:1000C80000009F918F912F9129985F985E985D9875
:1000D8005C980F91FF920F931F932F933F93CF93A9
:1000E800DF93EF93092F302FC0E0D0E0E0E01AE073
:1000F8002F93FF1829E0001F2A9509F408C0FF1C58
:10010800F11A18F4F10E8894F6CF0894F4CF2F91D1
:10011800CF2D1AE02F93FF1829E0001F2A9509F424
:1001280008C0FF1CF11A18F4F10E8894F6CF089451
:10013800F4CF2F91DF2D1AE02F93FF1829E0001F2D
:100148002A9509F408C0FF1CF11A18F4F10E8894D6
:10015800F6CF0894F4CF2F91EF2D20E010E3203054
:1001680029F0213041F0223059F04EC0343648F1A0
:10017800E10F0E2F08C03A3020F1D10F0D2F03C028
:10018800C10F0C2F00C05F985E985D985C98289A04
:1001980007FD5F9A06FD5E9A05FD5D9A04FD5C9A6F
:1001A800299A2F938F939F9321E08EE39CE90197DF
:1001B800F1F72A95D1F700009F918F912F912998F7
:1001C80001C020C05F985E985D985C9803FD5F9AB7
:1001D80002FD5E9A01FD5D9A00FD5C9A299A2F93B3
:1001E8008F939F9321E08EE39CE90197F1F72A957D
:1001F800D1F700009F918F912F9129985F985E9871
:100208005D985C982395ABCFEF91DF91CF913F91AB
:100218002F911F910F91FF90FFCF189508E00EBF07
:100228000FEF0DBF0F930091C00005FFFCCF02E553
:100238000093C6000F917894549A559A569A579AF3
:10024800209A219A259A2F938F939F9325E08EE3E6
:100258009CE90197F1F72A95D1F700009F918F91BA
:100268002F91289829980F9303E05F985E985D98DE
:100278005C98289807FD5F9A06FD5E9A05FD5D9AD1
:1002880004FD5C9A299A2F938F939F9321E08EE324
:100298009CE90197F1F72A95D1F700009F918F917A
:1002A8002F9129985F985E985D985C9803FD5F9AF6
:1002B80002FD5E9A01FD5D9A00FD5C9A299A2F93D2
:1002C8008F939F9321E08EE39CE90197F1F72A959C
:1002D800D1F700009F918F912F9129985F985E9890
:1002E8005D985C980F912F938F939F9320E08EE3F6
:1002F8009CE90197F1F72A95D1F700009F918F911A
:100308002F910F9303E05F985E985D985C9828980A
:1003180007FD5F9A06FD5E9A05FD5D9A04FD5C9AED
:10032800299A2F938F939F9321E08EE39CE901975D
:10033800F1F72A95D1F700009F918F912F91299875
:100348005F985E985D985C9803FD5F9A02FD5E9ADF
:1003580001FD5D9A00FD5C9A299A2F938F939F93D4
:1003680021E08EE39CE90197F1F72A95D1F7000087
:100378009F918F912F9129985F985E985D985C98CE
:100388000F912F938F939F9320E08EE39CE9019721
:10039800F1F72A95D1F700009F918F912F910F9334
:1003A80003E05F985E985D985C98289807FD5F9ACF
:1003B80006FD5E9A05FD5D9A04FD5C9A299A2F93C5
:1003C8008F939F9321E08EE39CE90197F1F72A959B
:1003D800D1F700009F918F912F9129985F985E988F
:1003E8005D985C9803FD5F9A02FD5E9A01FD5D9A37
:1003F80000FD5C9A299A2F938F939F9321E08EE3B7
:100408009CE90197F1F72A95D1F700009F918F9108
:100418002F9129985F985E985D985C980F912F931B
:100428008F939F9320E08EE39CE90197F1F72A953B
:10043800D1F700009F918F912F910F9302E05F9861
:100448005E985D985C98289807FD5F9A06FD5E9A0D
:1004580005FD5D9A04FD5C9A299A2F938F939F93CB
:1004680021E08EE39CE90197F1F72A95D1F7000086
:100478009F918F912F9129985F985E985D985C98CD
:1004880003FD5F9A02FD5E9A01FD5D9A00FD5C9A8C
:10049800299A2F938F939F9321E08EE39CE90197EC
:1004A800F1F72A95D1F700009F918F912F91299804
:1004B8005F985E985D985C980F910F9308E25F983B
:1004C8005E985D985C98289807FD5F9A06FD5E9A8D
:1004D80005FD5D9A04FD5C9A299A2F938F939F934B
:1004E80021E08EE39CE90197F1F72A95D1F7000006
:1004F8009F918F912F9129985F985E985D985C984D
:1005080003FD5F9A02FD5E9A01FD5D9A00FD5C9A0B
:10051800299A2F938F939F9321E08EE39CE901976B
:10052800F1F72A95D1F700009F918F912F91299883
:100538005F985E985D985C980F910F930CE05F98B8
:100548005E985D985C98289807FD5F9A06FD5E9A0C
:1005580005FD5D9A04FD5C9A299A2F938F939F93CA
:1005680021E08EE39CE90197F1F72A95D1F7000085
:100578009F918F912F9129985F985E985D985C98CC
:1005880003FD5F9A02FD5E9A01FD5D9A00FD5C9A8B
:10059800299A2F938F939F9321E08EE39CE90197EB
:1005A800F1F72A95D1F700009F918F912F91299803
:1005B8005F985E985D985C980F910F9301E05F9843
:1005C8005E985D985C98289807FD5F9A06FD5E9A8C
:1005D80005FD5D9A04FD5C9A299A2F938F939F934A
:1005E80021E08EE39CE90197F1F72A95D1F7000005
:1005F8009F918F912F9129985F985E985D985C984C
:1006080003FD5F9A02FD5E9A01FD5D9A00FD5C9A0A
:10061800299A2F938F939F9321E08EE39CE901976A
:10062800F1F72A95D1F700009F918F912F91299882
:100638005F985E985D985C980F912F938F939F9326
:1006480021E08EE39CE90197F1F72A95D1F70000A4
:100658009F918F912F910F9306E05F985E985D9818
:100668005C98289807FD5F9A06FD5E9A05FD5D9ADD
:1006780004FD5C9A299A2F938F939F9321E08EE330
:100688009CE90197F1F72A95D1F700009F918F9186
:100698002F9129985F985E985D985C9803FD5F9A02
:1006A80002FD5E9A01FD5D9A00FD5C9A299A2F93DE
:1006B8008F939F9321E08EE39CE90197F1F72A95A8
:1006C800D1F700009F918F912F9129985F985E989C
:1006D8005D985C980F912D9A0F931F9307E610E091
:1006E8000093C4001093C50008E10093C10006E020
:1006F8000093C2001F910F9160E091E30F9301E016
:100708005F985E985D985C98289807FD5F9A06FD4B
:100718005E9A05FD5D9A04FD5C9A299A2F938F9342
:100728009F9321E08EE39CE90197F1F72A95D1F791
:1007380000009F918F912F9129985F985E985D98FE
:100748005C9803FD5F9A02FD5E9A01FD5D9A00FDCB
:100758005C9A299A2F938F939F9321E08EE39CE9CB
:100768000197F1F72A95D1F700009F918F912F916A
:1007780029985F985E985D985C980F91913349F03D
:10078800923351F0933359F0943361F0953369F013
:10079800B5CF0E940904B2CF0E94B20AAFCF0E941F
:1007A800F40AACCF0E94540CA9CF0E94570C639551
:1007B800613109F001C060E00000A0CF9FCF2F9306
:1007C8008F939F9324E68EE39CE90197F1F72A958E
:1007D800D1F700009F918F912F9180910E00823068
:1007E80071F352E050930E002D982F938F939F939F
:1007F80028EC8EE39CE90197F1F72A95D1F70000E0
:100808009F918F912F912D9A79CF0F9301E05F9847
:100818005E985D985C98289807FD5F9A06FD5E9A39
:1008280005FD5D9A04FD5C9A299A2F938F939F93F7
:1008380021E08EE39CE90197F1F72A95D1F70000B2
:100848009F918F912F9129985F985E985D985C98F9
:1008580003FD5F9A02FD5E9A01FD5D9A00FD5C9AB8
:10086800299A2F938F939F9321E08EE39CE9019718
:10087800F1F72A95D1F700009F918F912F91299830
:100888005F985E985D985C980F91E6E6FBE14DE015
:100898000F931F934F9305914030D9F15F985E985D
:1008A8005D985C98289A07FD5F9A06FD5E9A05FD9B
:1008B8005D9A04FD5C9A299A2F938F939F9321E068
:1008C8008EE39CE90197F1F72A95D1F700009F91F3
:1008D8008F912F9129985F985E985D985C9803FD99
:1008E8005F9A02FD5E9A01FD5D9A00FD5C9A299A65
:1008F8002F938F939F9321E08EE39CE90197F1F763
:100908002A95D1F700009F918F912F9129984A95A8
:10091800C2CF0F930CE05F985E985D985C9828981A
:1009280007FD5F9A06FD5E9A05FD5D9A04FD5C9AD7
:10093800299A2F938F939F9321E08EE39CE9019747
:10094800F1F72A95D1F700009F918F912F9129985F
:100958005F985E985D985C9803FD5F9A02FD5E9AC9
:1009680001FD5D9A00FD5C9A299A2F938F939F93BE
:1009780021E08EE39CE90197F1F72A95D1F7000071
:100988009F918F912F9129985F985E985D985C98B8
:100998000F914F911F910F910F9300EC5F985E9804
:1009A8005D985C98289807FD5F9A06FD5E9A05FD9C
:1009B8005D9A04FD5C9A299A2F938F939F9321E067
:1009C8008EE39CE90197F1F72A95D1F700009F91F2
:1009D8008F912F9129985F985E985D985C9803FD98
:1009E8005F9A02FD5E9A01FD5D9A00FD5C9A299A64
:1009F8002F938F939F9321E08EE39CE90197F1F762
:100A08002A95D1F700009F918F912F9129985F988F
:100A18005E985D985C980F91E4E7FBE14DE00F93D9
:100A28001F934F9305914030D9F15F985E985D9878
:100A38005C98289A07FD5F9A06FD5E9A05FD5D9A07
:100A480004FD5C9A299A2F938F939F9321E08EE35C
:100A58009CE90197F1F72A95D1F700009F918F91B2
:100A68002F9129985F985E985D985C9803FD5F9A2E
:100A780002FD5E9A01FD5D9A00FD5C9A299A2F930A
:100A88008F939F9321E08EE39CE90197F1F72A95D4
:100A9800D1F700009F918F912F9129984A95C2CF45
:100AA8000F930CE05F985E985D985C98289807FD16
:100AB8005F9A06FD5E9A05FD5D9A04FD5C9A299A87
:100AC8002F938F939F9321E08EE39CE90197F1F791
:100AD8002A95D1F700009F918F912F9129985F98BF
:100AE8005E985D985C9803FD5F9A02FD5E9A01FD31
:100AF8005D9A00FD5C9A299A2F938F939F9321E02A
:100B08008EE39CE90197F1F72A95D1F700009F91B0
:100B18008F912F9129985F985E985D985C980F91B6
:100B28004F911F910F912F938F939F932AEF8EE3ED
:100B38009CE90197F1F72A95D1F700009F918F91D1
:100B48002F912F938F939F932AEF8EE39CE9019720
:100B5800F1F72A95D1F700009F918F912F910F936C
:100B680001E05F985E985D985C98289807FD5F9A09
:100B780006FD5E9A05FD5D9A04FD5C9A299A2F93FD
:100B88008F939F9321E08EE39CE90197F1F72A95D3
:100B9800D1F700009F918F912F9129985F985E98C7
:100BA8005D985C9803FD5F9A02FD5E9A01FD5D9A6F
:100BB80000FD5C9A299A2F938F939F9321E08EE3EF
:100BC8009CE90197F1F72A95D1F700009F918F9141
:100BD8002F9129985F985E985D985C980F91E2E84C
:100BE800FBE141E10F931F934F9305914030D9F1F9
:100BF8005F985E985D985C98289A07FD5F9A06FD55
:100C08005E9A05FD5D9A04FD5C9A299A2F938F934D
:100C18009F9321E08EE39CE90197F1F72A95D1F79C
:100C280000009F918F912F9129985F985E985D9809
:100C38005C9803FD5F9A02FD5E9A01FD5D9A00FDD6
:100C48005C9A299A2F938F939F9321E08EE39CE9D6
:100C58000197F1F72A95D1F700009F918F912F9175
:100C680029984A95C2CF0F930CE05F985E985D98DB
:100C78005C98289807FD5F9A06FD5E9A05FD5D9AC7
:100C880004FD5C9A299A2F938F939F9321E08EE31A
:100C98009CE90197F1F72A95D1F700009F918F9170
:100CA8002F9129985F985E985D985C9803FD5F9AEC
:100CB80002FD5E9A01FD5D9A00FD5C9A299A2F93C8
:100CC8008F939F9321E08EE39CE90197F1F72A9592
:100CD800D1F700009F918F912F9129985F985E9886
:100CE8005D985C980F914F911F910F910F9300ECB5
:100CF8005F985E985D985C98289807FD5F9A06FD56
:100D08005E9A05FD5D9A04FD5C9A299A2F938F934C
:100D18009F9321E08EE39CE90197F1F72A95D1F79B
:100D280000009F918F912F9129985F985E985D9808
:100D38005C9803FD5F9A02FD5E9A01FD5D9A00FDD5
:100D48005C9A299A2F938F939F9321E08EE39CE9D5
:100D58000197F1F72A95D1F700009F918F912F9174
:100D680029985F985E985D985C980F91E4E9FBE19B
:100D78004FE00F931F934F9305914030D9F15F983F
:100D88005E985D985C98289A07FD5F9A06FD5E9AC2
:100D980005FD5D9A04FD5C9A299A2F938F939F9382
:100DA80021E08EE39CE90197F1F72A95D1F700003D
:100DB8009F918F912F9129985F985E985D985C9884
:100DC80003FD5F9A02FD5E9A01FD5D9A00FD5C9A43
:100DD800299A2F938F939F9321E08EE39CE90197A3
:100DE800F1F72A95D1F700009F918F912F912998BB
:100DF8004A95C2CF0F930CE05F985E985D985C9817
:100E0800289807FD5F9A06FD5E9A05FD5D9A04FD28
:100E18005C9A299A2F938F939F9321E08EE39CE904
:100E28000197F1F72A95D1F700009F918F912F91A3
:100E380029985F985E985D985C9803FD5F9A02FD1B
:100E48005E9A01FD5D9A00FD5C9A299A2F938F9313
:100E58009F9321E08EE39CE90197F1F72A95D1F75A
:100E680000009F918F912F9129985F985E985D98C7
:100E78005C980F914F911F910F912F938F939F9390
:100E88002AEF8EE39CE90197F1F72A95D1F7000044
:100E98009F918F912F912F938F939F932AEF8EE39A
:100EA8009CE90197F1F72A95D1F700009F918F915E
:100EB8002F910F9301E05F985E985D985C98289851
:100EC80007FD5F9A06FD5E9A05FD5D9A04FD5C9A32
:100ED800299A2F938F939F9321E08EE39CE90197A2
:100EE800F1F72A95D1F700009F918F912F912998BA
:100EF8005F985E985D985C9803FD5F9A02FD5E9A24
:100F080001FD5D9A00FD5C9A299A2F938F939F9318
:100F180021E08EE39CE90197F1F72A95D1F70000CB
:100F28009F918F912F9129985F985E985D985C9812
:100F38000F91E4EAFBE14BE00F931F934F93059168
:100F48004030D9F15F985E985D985C98289A07FDC3
:100F58005F9A06FD5E9A05FD5D9A04FD5C9A299AE2
:100F68002F938F939F9321E08EE39CE90197F1F7EC
:100F78002A95D1F700009F918F912F9129985F981A
:100F88005E985D985C9803FD5F9A02FD5E9A01FD8C
:100F98005D9A00FD5C9A299A2F938F939F9321E085
:100FA8008EE39CE90197F1F72A95D1F700009F910C
:100FB8008F912F9129984A95C2CF0F930CE05F9893
:100FC8005E985D985C98289807FD5F9A06FD5E9A82
:100FD80005FD5D9A04FD5C9A299A2F938F939F9340
:100FE80021E08EE39CE90197F1F72A95D1F70000FB
:100FF8009F918F912F9129985F985E985D985C9842
:1010080003FD5F9A02FD5E9A01FD5D9A00FD5C9A00
:10101800299A2F938F939F9321E08EE39CE9019760
:10102800F1F72A95D1F700009F918F912F91299878
:101038005F985E985D985C980F914F911F910F9102
:101048000F9300EC5F985E985D985C98289807FD70
:101058005F9A06FD5E9A05FD5D9A04FD5C9A299AE1
:101068002F938F939F9321E08EE39CE90197F1F7EB
:101078002A95D1F700009F918F912F9129985F9819
:101088005E985D985C9803FD5F9A02FD5E9A01FD8B
:101098005D9A00FD5C9A299A2F938F939F9321E084
:1010A8008EE39CE90197F1F72A95D1F700009F910B
:1010B8008F912F9129985F985E985D985C980F9111
:1010C800E0EBFBE14FE00F931F934F930591403006
:1010D800D9F15F985E985D985C98289A07FD5F9AA9
:1010E80006FD5E9A05FD5D9A04FD5C9A299A2F9388
:1010F8008F939F9321E08EE39CE90197F1F72A955E
:10110800D1F700009F918F912F9129985F985E9851
:101118005D985C9803FD5F9A02FD5E9A01FD5D9AF9
:1011280000FD5C9A299A2F938F939F9321E08EE379
:101138009CE90197F1F72A95D1F700009F918F91CB
:101148002F9129984A95C2CF0F930CE05F985E982B
:101158005D985C98289807FD5F9A06FD5E9A05FDE4
:101168005D9A04FD5C9A299A2F938F939F9321E0AF
:101178008EE39CE90197F1F72A95D1F700009F913A
:101188008F912F9129985F985E985D985C9803FDE0
:101198005F9A02FD5E9A01FD5D9A00FD5C9A299AAC
:1011A8002F938F939F9321E08EE39CE90197F1F7AA
:1011B8002A95D1F700009F918F912F9129985F98D8
:1011C8005E985D985C980F914F911F910F912F93A6
:1011D8008F939F932AEF8EE39CE90197F1F72A9565
:1011E800D1F700009F918F912F912F938F939F9309
:1011F8002AEF8EE39CE90197F1F72A95D1F70000D1
:101208009F918F912F910F9301E05F985E985D9861
:101218005C98289807FD5F9A06FD5E9A05FD5D9A21
:1012280004FD5C9A299A2F938F939F9321E08EE374
:101238009CE90197F1F72A95D1F700009F918F91CA
:101248002F9129985F985E985D985C9803FD5F9A46
:1012580002FD5E9A01FD5D9A00FD5C9A299A2F9322
:101268008F939F9321E08EE39CE90197F1F72A95EC
:10127800D1F700009F918F912F9129985F985E98E0
:101288005D985C980F91E0ECFBE14FE00F931F93A2
:101298004F9305914030D9F15F985E985D985C98BE
:1012A800289A07FD5F9A06FD5E9A05FD5D9A04FD82
:1012B8005C9A299A2F938F939F9321E08EE39CE960
:1012C8000197F1F72A95D1F700009F918F912F91FF
:1012D80029985F985E985D985C9803FD5F9A02FD77
:1012E8005E9A01FD5D9A00FD5C9A299A2F938F936F
:1012F8009F9321E08EE39CE90197F1F72A95D1F7B6
:1013080000009F918F912F9129984A95C2CF0F93F2
:101318000CE05F985E985D985C98289807FD5F9A46
:1013280006FD5E9A05FD5D9A04FD5C9A299A2F9345
:101338008F939F9321E08EE39CE90197F1F72A951B
:10134800D1F700009F918F912F9129985F985E980F
:101358005D985C9803FD5F9A02FD5E9A01FD5D9AB7
:1013680000FD5C9A299A2F938F939F9321E08EE337
:101378009CE90197F1F72A95D1F700009F918F9189
:101388002F9129985F985E985D985C980F914F917E
:101398001F910F910F9300EC5F985E985D985C9891
:1013A800289807FD5F9A06FD5E9A05FD5D9A04FD83
:1013B8005C9A299A2F938F939F9321E08EE39CE95F
:1013C8000197F1F72A95D1F700009F918F912F91FE
:1013D80029985F985E985D985C9803FD5F9A02FD76
:1013E8005E9A01FD5D9A00FD5C9A299A2F938F936E
:1013F8009F9321E08EE39CE90197F1F72A95D1F7B5
:1014080000009F918F912F9129985F985E985D9821
:101418005C980F91E0EDFBE14FE00F931F934F9322
:1014280005914030D9F15F985E985D985C98289A4C
:1014380007FD5F9A06FD5E9A05FD5D9A04FD5C9ABC
:10144800299A2F938F939F9321E08EE39CE901972C
:10145800F1F72A95D1F700009F918F912F91299844
:101468005F985E985D985C9803FD5F9A02FD5E9AAE
:1014780001FD5D9A00FD5C9A299A2F938F939F93A3
:1014880021E08EE39CE90197F1F72A95D1F7000056
:101498009F918F912F9129984A95C2CF0F930CE075
:1014A8005F985E985D985C98289807FD5F9A06FD9E
:1014B8005E9A05FD5D9A04FD5C9A299A2F938F9395
:1014C8009F9321E08EE39CE90197F1F72A95D1F7E4
:1014D80000009F918F912F9129985F985E985D9851
:1014E8005C9803FD5F9A02FD5E9A01FD5D9A00FD1E
:1014F8005C9A299A2F938F939F9321E08EE39CE91E
:101508000197F1F72A95D1F700009F918F912F91BC
:1015180029985F985E985D985C980F914F911F91FC
:101528000F912F938F939F932AEF8EE39CE9019756
:10153800F1F72A95D1F700009F918F912F912F9362
:101548008F939F932AEF8EE39CE90197F1F72A95F1
:10155800D1F700009F918F912F9108950F9301E08B
:101568005F985E985D985C98289807FD5F9A06FDDD
:101578005E9A05FD5D9A04FD5C9A299A2F938F93D4
:101588009F9321E08EE39CE90197F1F72A95D1F723
:1015980000009F918F912F9129985F985E985D9890
:1015A8005C9803FD5F9A02FD5E9A01FD5D9A00FD5D
:1015B8005C9A299A2F938F939F9321E08EE39CE95D
:1015C8000197F1F72A95D1F700009F918F912F91FC
:1015D80029985F985E985D985C980F9190E30895BC
:1015E800E0EEFBE141E10F931F934F9305914030EB
:1015F800D9F15F985E985D985C98289A07FD5F9A84
:1016080006FD5E9A05FD5D9A04FD5C9A299A2F9362
:101618008F939F9321E08EE39CE90197F1F72A9538
:10162800D1F700009F918F912F9129985F985E982C
:101638005D985C9803FD5F9A02FD5E9A01FD5D9AD4
:1016480000FD5C9A299A2F938F939F9321E08EE354
:101658009CE90197F1F72A95D1F700009F918F91A6
:101668002F9129984A95C2CF0F930CE05F985E9806
:101678005D985C98289807FD5F9A06FD5E9A05FDBF
:101688005D9A04FD5C9A299A2F938F939F9321E08A
:101698008EE39CE90197F1F72A95D1F700009F9115
:1016A8008F912F9129985F985E985D985C9803FDBB
:1016B8005F9A02FD5E9A01FD5D9A00FD5C9A299A87
:1016C8002F938F939F9321E08EE39CE90197F1F785
:1016D8002A95D1F700009F918F912F9129985F98B3
:1016E8005E985D985C980F914F911F910F910F93A1
:1016F80000EC5F985E985D985C98289807FD5F9A63
:1017080006FD5E9A05FD5D9A04FD5C9A299A2F9361
:101718008F939F9321E08EE39CE90197F1F72A9537
:10172800D1F700009F918F912F9129985F985E982B
:101738005D985C9803FD5F9A02FD5E9A01FD5D9AD3
:1017480000FD5C9A299A2F938F939F9321E08EE353
:101758009CE90197F1F72A95D1F700009F918F91A5
:101768002F9129985F985E985D985C980F91E2EFA9
:10177800FBE141E10F931F934F9305914030D9F15D
:101788005F985E985D985C98289A07FD5F9A06FDB9
:101798005E9A05FD5D9A04FD5C9A299A2F938F93B2
:1017A8009F9321E08EE39CE90197F1F72A95D1F701
:1017B80000009F918F912F9129985F985E985D986E
:1017C8005C9803FD5F9A02FD5E9A01FD5D9A00FD3B
:1017D8005C9A299A2F938F939F9321E08EE39CE93B
:1017E8000197F1F72A95D1F700009F918F912F91DA
:1017F80029984A95C2CF0F930CE05F985E985D9840
:101808005C98289807FD5F9A06FD5E9A05FD5D9A2B
:1018180004FD5C9A299A2F938F939F9321E08EE37E
:101828009CE90197F1F72A95D1F700009F918F91D4
:101838002F9129985F985E985D985C9803FD5F9A50
:1018480002FD5E9A01FD5D9A00FD5C9A299A2F932C
:101858008F939F9321E08EE39CE90197F1F72A95F6
:10186800D1F700009F918F912F9129985F985E98EA
:101878005D985C980F914F911F910F912F938F93C3
:101888009F932FE08EE39CE90197F1F72A95D1F712
:1018980000009F918F912F9108952D9A90E30895BC
:1018A8002D9890E308950F9301E05F985E985D98F6
:1018B8005C98289807FD5F9A06FD5E9A05FD5D9A7B
:1018C80004FD5C9A299A2F938F939F9321E08EE3CE
:1018D8009CE90197F1F72A95D1F700009F918F9124
:1018E8002F9129985F985E985D985C9803FD5F9AA0
:1018F80002FD5E9A01FD5D9A00FD5C9A299A2F937C
:101908008F939F9321E08EE39CE90197F1F72A9545
:10191800D1F700009F918F912F9129985F985E9839
:101928005D985C980F910F9300E85F985E985D98BA
:101938005C98289807FD5F9A06FD5E9A05FD5D9AFA
:1019480004FD5C9A299A2F938F939F9321E08EE34D
:101958009CE90197F1F72A95D1F700009F918F91A3
:101968002F9129985F985E985D985C9803FD5F9A1F
:1019780002FD5E9A01FD5D9A00FD5C9A299A2F93FB
:101988008F939F9321E08EE39CE90197F1F72A95C5
:10199800D1F700009F918F912F9129985F985E98B9
:1019A8005D985C980F9150E0561709F442C00F9368
:1019B80004E15F985E985D985C98289807FD5F9AA7
:1019C80006FD5E9A05FD5D9A04FD5C9A299A2F939F
:1019D8008F939F9321E08EE39CE90197F1F72A9575
:1019E800D1F700009F918F912F9129985F985E9869
:1019F8005D985C9803FD5F9A02FD5E9A01FD5D9A11
:101A080000FD5C9A299A2F938F939F9321E08EE390
:101A18009CE90197F1F72A95D1F700009F918F91E2
:101A28002F9129985F985E985D985C980F915395CF
:101A3800BBCFE4E0FCE149E00F931F934F9305917E
:101A48004030D9F15F985E985D985C98289A07FDB8
:101A58005F9A06FD5E9A05FD5D9A04FD5C9A299AD7
:101A68002F938F939F9321E08EE39CE90197F1F7E1
:101A78002A95D1F700009F918F912F9129985F980F
:101A88005E985D985C9803FD5F9A02FD5E9A01FD81
:101A98005D9A00FD5C9A299A2F938F939F9321E07A
:101AA8008EE39CE90197F1F72A95D1F700009F9101
:101AB8008F912F9129984A95C2CF0F930CE05F9888
:101AC8005E985D985C98289807FD5F9A06FD5E9A77
:101AD80005FD5D9A04FD5C9A299A2F938F939F9335
:101AE80021E08EE39CE90197F1F72A95D1F70000F0
:101AF8009F918F912F9129985F985E985D985C9837
:101B080003FD5F9A02FD5E9A01FD5D9A00FD5C9AF5
:101B1800299A2F938F939F9321E08EE39CE9019755
:101B2800F1F72A95D1F700009F918F912F9129986D
:101B38005F985E985D985C980F914F911F910F91F7
:101B48002F938F939F932EE18EE39CE90197F1F7F2
:101B58002A95D1F700009F918F912F910895202009
:101B68004752454554494E4720544F0020202045B0
:101B7800564552594F4E45202100434F414C204C69
:101B880041422050524F4A454354000020202053E0
:101B9800455353494F4E203230323200505245504F
:101BA80041524544204259003133332031343720E3
:101BB80031333720313536005441595941422020BC
:101BC800554D41494D4100004D4F4D494E41202052
:101BD8004748414E49410000202041565220415378
:101BE80053454D424C59202000002042592053496A
:101BF800522E205445485345454E000044657665AD
:061C08006C6F70657200B4
:00000001FF
